:100000000C943A000C9457000C9457000C94570031
:100010000C9457000C9457000C9457000C94570004
:100020000C9457000C9457000C9457000C945700F4
:100030000C9457000C9457000C9457000C945700E4
:100040000C9457000C9457000C9457000C945700D4
:100050000C9457000C9457000C9457000C945700C4
:100060000C9457000C9457000C9457000C945700B4
:100070000C94570011241FBECFEFD4E0DEBFCDBFDC
:1000800013E0A0E0B1E0ECE4FFE002C005900D92C7
:10009000A239B107D9F723E0A2E9B3E001C01D926C
:1000A000A93AB207E1F70E94FF060C94A4070C944A
:1000B0000000CF93DF9300D0CDB7DEB789831A82DB
:1000C000CE0101960E944F060F900F90DF91CF91C5
:1000D0000895EF92FF920F931F93CF93DF937C01CC
:1000E00000E010E00E947E040E9473060E949D03BF
:1000F00080E00E946B03882311F00F5F1F4F82E0A6
:100100000E946B03882311F00150110984E00E94C2
:100110006B03F701E00FF11F882329F0C0810C2E3B
:10012000000CDD0B02C0C0E0D0E080810E945900CD
:100130002097C1F28C2FDF91CF911F910F91FF90EB
:10014000EF9008950E947E040E9473060E949D0312
:1001500084E00E946B038823A9F30895CF93DF9373
:1001600000D01F92CDB7DEB781E3898383E38A8312
:1001700085E38B83CE0101960E946900082E000C56
:10018000990B0F900F900F90DF91CF910895CF931F
:10019000DF9300D01F92CDB7DEB780E5898383E57A
:1001A0008A8382E58B83CE0101960E9469000F90BD
:1001B0000F900F90DF91CF910895803539F463351A
:1001C000D1F081E090E0623591F417C0833539F4C5
:1001D000623589F081E090E0603549F40EC08235E7
:1001E00041F4603541F081E090E0633531F080E02A
:1001F000089580E001C082E090E008958AE393E0F2
:100200000E944F060C94A20084E493E00E944F06E3
:100210000C94A200009719F484E593E00AC08130A1
:10022000910519F489E693E004C0029731F48DE753
:1002300093E00E944F060C94A20008950C9456027D
:100240000C9477020C945C020C9462020C94680289
:100250000E9468020E9462028823E1F38CE291E02E
:100260000197F1F70E94560281110C942001089524
:100270000C947E02CF93DF9300D01F92CDB7DEB7F0
:1002800080ED90E09A83898388E08B83509A589A16
:100290000E9429028FE690E00E94C00181E090E078
:1002A0000E94180261E070E081E090E00E94040288
:1002B0000E94F001CE0101960E943E020F900F9025
:1002C0000F90DF91CF910895CF93DF93DC01562FEC
:1002D000FB0160E070E0C1E0D0E08E2F851B841749
:1002E000B8F49191BE01092E02C0660F771F0A94DF
:1002F000E2F76F5F7F4F769567956A0F7B1F02C0AD
:10030000769567959A95E2F76F3F710509F028F7A2
:10031000F9016083DF91CF910895E1E6F0E080E894
:1003200080831082A89584B7877F84BFE0E6F0E0E1
:10033000808188618083108208951092800084E01B
:10034000809381001092850010928400089580911E
:100350008400909185000895AC0180918400909173
:1003600085009C01241B350B283E3340B0F70895CF
:100370002091840030918500820F931F0C94AC0172
:10038000CF93DF931F92CDB7DEB79E012F5F3F4F14
:1003900045E063E173E00E94640191E0980F90935F
:1003A00000019981915097BD18BC95B5977039F0AF
:1003B00095B5209100012770987F922B95BD2981DA
:1003C00030E0E82FF0E0ED5EFC4FC901008002C094
:1003D000880F991F0A94E2F70F90DF91CF9108954B
:1003E00085B3897F85BB85B5909100019770887F23
:1003F000892B85BD089585B5887F85BD089585B312
:1004000082FB882780F90895009719F0019741F041
:10041000089584B56295660F660F607C8F7305C082
:1004200084B563706295607F8F7C682B64BD08958E
:10043000009741F0019759F484B58E7F84BD84B54F
:10044000826002C084B58C7F84BD81E0089580E025
:10045000089514BC15BC16BC18BC84B58E7F84BD31
:1004600084B5826084BD81E008959C0121503109EA
:100470003093CD0081508093CC000895CF93DF93CB
:10048000EC01888199810E9435028A819BEF980F47
:10049000943008F088E098E19093C9008550880F67
:1004A0008093CA0081E0DF91CF9108958091C800C8
:1004B000881F8827881F08958091C80085FB88279A
:1004C00080F908958091C80086FB882780F90895F7
:1004D000CF93C82F0E945C028823E1F39091C8005B
:1004E00090649093C800C093CE00CF9108958091FE
:1004F000C80087FFFCCF8091CE000895CF93DF9393
:10050000EC018991882319F00E946802FACFDF91EB
:10051000CF910895853098F4673088F421E030E079
:1005200001C0220F6A95EAF7E82FF0E0ED56FC4F84
:10053000922F9095808189234111822B8083089589
:10054000853080F4673070F4E82FF0E0ED56FC4F12
:1005500081E090E001C0880F6A95EAF790819823C6
:1005600081E009F480E0089560919203E62FF0E0C5
:10057000ED56FC4F80810E940203809192038F5FB1
:10058000853018F480939203089510929203089591
:10059000E3E9F3E01082118212821382148208953B
:1005A0000E94E0020C94C8029C01FC01FF2784A178
:1005B000832B84A395A1892F832B85A381E00895A4
:1005C000CF93DF93C2E2D3E0899199910E94D40244
:1005D00083E0C033D807C1F783E090E40E94D402DF
:1005E00080E090E80E94D40283E090E10E94D4026F
:1005F00083E090E80E94D40283E090E2DF91CF9103
:100600000C94D402E0919803F0E0EE0FFF1FE85E37
:10061000FC4F20813181F901FF2795A1932B95A3F0
:10062000E2E2F3E097E020813181D901BB27959682
:100630002C91959780FF03C03095232301C0232B75
:1006400095962C938695915032969111ECCFE62F8A
:10065000F0E0EE0FFF1FE85EFC4F80819181FC010E
:10066000FF2785A19095892385A36093980308951A
:100670006230710511F168F46130710551F5FC01CA
:10068000FF2724A1892F8095922F982394A395A1C9
:1006900012C06330710541F064307105D1F4FC0182
:1006A000FF2784A1892B0FC0FC01FF2784A1892B80
:1006B00084A385A19095892309C0FC01FF2724A16B
:1006C000892F8095822384A385A1892B85A381E02E
:1006D000089580E00895E82FF0E0EE0FFF1FE75641
:1006E000FC4F8081882321F0918181E0892702C01D
:1006F00080E090E081700895E82FF0E0EE0FFF1F9A
:10070000E756FC4F8081811102C0818102C080E0E8
:1007100090E081700895E82FF0E0EE0FFF1FE7569C
:10072000FC4F80810895E82FF0E0EE0FFF1FE756A1
:10073000FC4F908181E0892708956F927F928F927C
:100740009F92AF92BF92CF92DF92EF92FF920F9360
:100750001F93CF93DF9300D0CDB7DEB729E9622E88
:1007600023E0722E30E3C32E33E0D32E812C46E0FB
:10077000942EF30180818183F601019111916F0123
:100780005801BB24F50184A1E12EFF2425A130E00E
:100790002E213F2141E0232B09F440E090E08E21FF
:1007A0009F21892B29F0411108C023E030E00AC0C5
:1007B000411106C021E030E005C024E030E002C075
:1007C00022E030E064E070E0C80129833A830E94AF
:1007D000380362E070E0C8010E943803892D8A95D1
:1007E000F1F7F50183A190E0E822F92281E0298167
:1007F0003A81EF2809F080E0F3018083B901C80154
:100800000E9438038394F2E06F0E711C85E0881219
:10081000B0CF0F900F90DF91CF911F910F91FF906C
:10082000EF90DF90CF90BF90AF909F908F907F9090
:100830006F9008950895009789F0FC012381621B51
:1008400067FD09C0062E000C770B248130E081E0A3
:10085000621773070CF080E08170089580E00895BE
:10086000CF93DF93FC01A62F822F309771F1618126
:10087000461758F59281291740F59381A91BA7FDCA
:1008800024C00A2E000CBB0BC481D0E0AC17BD07FE
:10089000E4F40E942607480F658170E0CD010E94B4
:1008A0002F070696242F269526952695E80FF91FE3
:1008B000E20FF11D9081892F90E0477002C095955D
:1008C00087954A95E2F7817001C080E0DF91CF9172
:1008D0000895CF93DF93EC010E949D019E0140E0BB
:1008E00050E062E17AE780E090E00E9454073093A4
:1008F000A6032093A503DF91CF9108958091A303D0
:100900009091A4030E94AC012091A3033091A40311
:100910008091A5039091A603820F931F9093A40347
:100920008093A303089541E0611101C040E0692F65
:100930000C948A02692F0C94A00241E0611101C05D
:1009400040E0692F0C948A024F925F926F927F92DF
:100950008F929F92AF92BF92CF92DF92EF92FF92CF
:100960000F931F93CF93DF931F92CDB7DEB7862EE1
:10097000942E5C01E62EF72E262F660F330B281BD4
:10098000310987FD3395072F072E000C110B091B2A
:10099000110997FD139537FF03C077247A9402C09D
:1009A0007724739417FF03C066246A9402C06624F8
:1009B0006394290137FF03C051944194510817FFF4
:1009C00003C011950195110940165106A4F062016A
:1009D000D594C794F92EA81421F1692D8A2D9F2D45
:1009E0000E949D04C01AD10AD7FE03C0C40CD51CB6
:1009F000F60CA70CF0CF6801D594C794E82EB71673
:100A000081F0692D8E2D9B2D79830E949D04C41841
:100A1000D5087981D7FE03C0C00ED11EE70CB60CF5
:100A2000EECF692DC7010F90DF91CF911F910F91EC
:100A3000FF90EF90DF90CF90BF90AF909F908F90FE
:100A40007F906F905F904F900C949D04FF920F9356
:100A50001F93CF93DF93D82FF92E162FC72F042F74
:100A6000792F0E94A404402F6D2F7C2F8D2F9F2D56
:100A70000E94A404402F612F7C2F812F9F2D0E9464
:100A8000A404402F612F7C2F8D2F9C2F0E94A40443
:100A9000DF91CF911F910F91FF9008950E94C8029E
:100AA000E1E0F1E0118A14860895DF92EF92FF925F
:100AB0000F931F93CF93DF93D82E7B01162F0F2D0B
:100AC0008091030190910401C0E00197A1F50F2DE1
:100AD0000C1BE0910901F0910A018181C817C0F453
:100AE000D0E08091090190910A01FC012281D21786
:100AF00068F42D2F4C2F6D2D0E943004682F8D2F00
:100B00008E0D902F0E949D04DF5FEBCFCF5FDFCF74
:100B1000C0E0E0910901F0910A018281C81740F418
:100B200060E08C2F8E0D902F0E949D04CF5FF1CF3F
:100B3000015031C0CF5F1C2F1E0DE0910901F091D3
:100B40000A018181C817B0F4D0E080910901909129
:100B50000A01FC012281D21768F72D2F4C2F6D2D31
:100B60000E943004682F812F9D2F9F0D0E949D04AD
:100B7000DF5FEBCFC0E0E0910901F0910A018281D3
:100B8000C81740F460E0812F9C2F9F0D0E949D04A8
:100B9000CF5FF1CF1F5F812F902FDF91CF911F91FA
:100BA0000F91FF90EF90DF9008951F93CF93DF9305
:100BB000182FEC018C2F811B9991992351F0892FCB
:100BC0000E945505BC018C2F811B653014F477FF02
:100BD000F1CFDF91CF911F9108950F931F93CF9382
:100BE000DF93EC019B0110920D0140930E011092D6
:100BF00011010091090110910A010115110509F473
:100C000049C0F8018181609107017091080190E06D
:100C10000E942F07BC0180910B0190910C010E9452
:100C20004007CB016AE070E00E942F07909310010B
:100C300080930F01309306012093050140E250E0BC
:100C4000BE0182E191E00E9495078091010190919F
:100C500002010197F9F4FE0101900020E9F7CF01AC
:100C60000197F8019181692F70E06F5F7F4F8C1BB6
:100C70000E94260781502091030130910401213008
:100C8000310511F095E001C097E0981718F48EEF48
:100C900080931101DF91CF911F910F9108952091C1
:100CA0000301309104012130310511F070E001C0E1
:100CB00076E04FEF60E00E94ED05089590E090939C
:100CC0000801809307010895909302018093010128
:100CD00008959093040180930301089590930A016D
:100CE0008093090108958091A7039091A80301962C
:100CF0009093A8038093A70320910F0130911001D6
:100D00008217930708F469C01092A8031092A703F2
:100D1000E0910D01F0E0EF5FFE4F818981110AC083
:100D200080910E01823008F458C0815080930E01EA
:100D300010920D0180910D0190E0FC01EF5FFE4FDC
:100D40002189222309F449C04091010150910201F7
:100D5000209111014115510521F04130510599F0C3
:100D600024C0211122C060910501709106018E5EA0
:100D70009E4F0E94D50590E0019790910D01890F3B
:100D800080930D0112C060910501709106014091A0
:100D90000301509104014130510511F4720F01C05B
:100DA000621B8E5E9E4F0E94D505809111018F5F60
:100DB00080931101082E000C990BE0910901F0912C
:100DC0000A01218130E0281739073CF41092110103
:100DD00080910D018F5F80930D010C94B402CF932D
:100DE000DF93C1E0D1E09B878A870E94D00284E133
:100DF00090E09F838E83DF91CF910C944E050E94EB
:100E00008D010E941A0484EF91E00E94690484EF2E
:100E100091E00E94EF0682E391E00E946E068EE16F
:100E20000E945E0681E090E00E9464060E94FE003F
:100E30000E94AE000E9404010E94C70062E50E9469
:100E4000DD000E940A0180E090E00895002480FD0A
:100E5000060E660F11F08695D1F7802D08950024B7
:100E6000552704C0080E591F880F991F009729F0B5
:100E700076956795B8F37105B9F7802D952F08958C
:100E8000AA1BBB1B51E107C0AA1FBB1FA617B707B0
:100E900010F0A61BB70B881F991F5A95A9F78095CC
:100EA0009095BC01CD010895052E97FB1EF400948A
:100EB0000E946B0757FD07D00E94730707FC03D001
:100EC0004EF40C946B0750954095309521953F4F0B
:100ED0004F4F5F4F089590958095709561957F4F26
:100EE0008F4F9F4F0895A1E21A2EAA1BBB1BFD0135
:100EF0000DC0AA1FBB1FEE1FFF1FA217B307E407F9
:100F0000F50720F0A21BB30BE40BF50B661F771F50
:100F1000881F991F1A9469F7609570958095909530
:100F20009B01AC01BD01CF010895FB01DC014150E3
:100F3000504048F001900D920020C9F701C01D9269
:0C0F400041505040E0F70895F894FFCFB6
:100F4C000100000000000014000000000000000080
:100F5C000000000000000000000000000000000085
:100F6C000000000000000000000000000000000075
:100F7C000000010507205F050000000000C6186393
:100F8C0080014A290000004A7DF59502C417471FCD
:100F9C0001632222320626155193058608000000B3
:100FAC008808210802822084880080545709008018
:100FBC00904F0800000060880000800F00000000C7
:100FCC00008C0100222202002EE63AA303C4104238
:100FDC0088032E4244C4072E4207A30388A9F411A8
:100FEC00023F8407A3032E8617A3033F4244080144
:100FFC002E4617A3032E460FA303C018600C00C087
:10100C00186088008888200802007CF0010082208B
:10101C008888002E424400012E425BAB0344C51F5E
:10102C0063042FC617E3032E8610A2032FC618E302
:10103C00033F8417C2073F841742002E861EA30766
:10104C0031C61F63048E10428803104218A303316B
:10105C0095515204218410C20771D71A630471D6BA
:10106C001C63042EC618A3032FC61742002EC658A5
:10107C0093052FC61763042E0607A3039F1042087F
:10108C000131C618A30331C618150131C65AAB027B
:10109C00312AA26204312A4208011F2222C20727E8
:1010AC008410C20120088220000E21849003444544
:1010BC00000000000000C00782200000000038E89B
:1010CC00A30721B419E30300B810A20310DA1CA380
:1010DC000700B8F883034C8A238400C0C7E8A10337
:1010EC0021B4196304041842880308308492012146
:1010FC00A4324A02861042880300AC5A630400B43E
:10110C0019630400B818A30300BCF8420000D8EC23
:10111C00210400B419420000B8E0E003421C212471
:10112C000300C418B30500C418150100C45AAB025F
:10113C00004445540400C4E8A103007C44C407885F
:10114C001041080284104208018210448800008873
:10115C008A0000000306080A034000800310038085
:10116C0003200040002000100008000400020001D1
:10117C000380034003200080031042657374206FCA
:10118C00663A200043686F6F7365204F626A65632F
:10119C00743A2000596F7520447265772074686921
:1011AC007320526F756E642100596F7520576F6EE6
:1011BC00207468697320526F756E642100596F75C5
:1011CC00204C6F7374207468697320526F756E6451
:0211DC002100F0
:00000001FF
